:03000000020006F5
:03005F0002000399
:0300030002029561
:200062003098FDAF99C2987E008F828E8322AE82AF83BE0A11BF000E90000DC007C0061211
:200082000070D006D007C2998E993099FD9000002285820885830985F00AE412065C12003E
:2000A20062AB82AC83850882850983850AF0EB12065CBBA0E974012508FAE43509FBAC0ACF
:2000C200C004C003C002120062A882D002D003D0048A828B838CF0E812065C74022508F534
:2000E2000BE43509F50C850A0DC004C003C002120062AD82D002D003D004850B82850C83A9
:20010200850DF0ED12065C74032508FDE43509FEAF0AC007C006C005C004C003C0021200D3
:2001220062A882A983D002D003D004D005D006D0078D828E838FF0E812065C850882850972
:2001420083850AF0120E41FF8A828B838CF0120E41FA2FFF850B82850C83850DF0120E4113
:20016200FE2FFFB50001220200A02290000E75F040120093AF0FBF01028029BF0202802B36
:20018200BF0302802DBF0402802FBF11028031BF12028032BF13028033BF21028034BF2272
:2001A20002805022E51024FF929222E51024FF929522E51024FF929222E51024FF929522CB
:2001C2008510DBD2DE228510DDD2DE228510DCD2DE22A280E433FE7F00C006C0077461C07C
:2001E200E0740EC0E07480C0E012069FE58124FBF58122A290E433FE7F00C006C007746864
:20020200C0E0740EC0E07480C0E012069FE58124FBF58122AC82AD83AEF0FF53B1BFAAB298
:200222004302408AB2AAB14302808AB153B27F759850AA894302208A89AA874302808A870D
:20024200AA8E4302108A8E53C4DF8C3C8D3D8E3E8F3F90424075F00FE41205F7AC820CC360
:20026200E49CF58DD28ED29922AD82AE83AFF0C007C006C005120062AB82D005D006D00719
:200282008D828E838FF0EB12065CA3AD82AE83BB0ADD22904B00E4F5F0120216746FC0E046
:2002A200740EC0E07480C0E012069F15811581158174B4C0E0740EC0E07480C0E012069FD8
:2002C20015811581158153B3DFAEB44306208EB453B3DFAEB44306208EB453B3FBAEB443D0
:2002E20006048EB453B3FBAEB44306048EB453B1F7AEB24306088EB253B1FDAEB243060226
:200302008EB253B1EFAEB24306108EB2AEB34306018EB353B4FEAEB14306018EB153B2FED3
:2003220075D10075D9FF538EBFAEDF4306078EDF53DFEFAEDE4306028EDEAEDE4306048E73
:20034200DEAEDE4306088EDEC281C284D283C292C295C292C2959001F4E4F5F01203AA75BE
:12036200D30075D40075D50075DB10D2DF12016D80FB17
:200E610053313A25780A0053323A25780A000A0A0A48656C6C6F20776F726C642E2049278E
:200E81006D2061206861636B79206F70656E736F75726365206669726D7761726520666F5E
:200EA10072204C432D74656368206D6F64756C65730A00476F20636865636B206F757420B0
:200EC1006D7920626C6F672068747470733A2F2F6E63726D6E742E6F726720666F72206D80
:130EE1006F726520617765736F6D652073747566660A0055
:20037400AC82AD83AEF0FF538EF7AA894302018A89D28CEC4D4E4F601A758A7E758CFF10CF
:200394008D0280FB1CBCFF091DBDFF051EBEFF011F80E0C28C22AC82AD83AEF0FF538EF7E3
:2003B400AA894302018A89D28CEC4D4E4F601A758ACA758CFA108D0280FB1CBCFF091DBD57
:2003D400FF051EBEFF011F80E0C28C22AC82AD83AEF0FF538EEFAA894302108A89D28EEC88
:2003F4004D4E4F601A758BEA758DCB108F0280FB1CBCFF091DBDFF051EBEFF011F80E0C2D7
:200414008E22AC82AD83AEF0FF53C9BF53C9DFAAC94302108AC9D2CAEC4D4E4F601A75CCFF
:200434003075CDF810CF0280FB1CBCFF091DBDFF051EBEFF011F80E0C2CA22AC82AD83AE0F
:20045400F0FF75C407AAC47B004302088AC4EC4D4E4F602575C52C75C6CFAAC45302107BBC
:2004740000BA10F6BB00F353C4EF1CBCFF091DBDFF051EBEFF011F80D553C4F722AC82ADDB
:2004940083AEF0FF75C407AAC47B004302088AC4EC4D4E4F602575C5D875C6FFAAC45302FA
:1F04B400107B00BA10F6BB00F353C4EF1CBCFF091DBDFF051EBEFF011F80D553C4F722EC
:2004D300AC82AD83AEF0FF53B1BF53B2BF53B17F53B27F759850AA894302208A89AA874304
:2004F30002808A87AA8E4302108A8E53C4DF8C3C8D3D8E3E8F3F90424075F00FE41205F717
:20051300AC820CC3E49CF58DD28ED29922AC82AD83AEF0FF53B1BF53B2BF53B17F53B27F53
:20053300759850AA874302808A8753C4F8AAC44302208AC48C3C8D3D8E3E8F3F9042407561
:20055300F00FE41205F7AC82AD83AEF0FF74FFC39C74FF9DF9E49EE49F89C674FFC39CFC9F
:200573008CC5AEC44306088EC4D299223098FD859982C29822AF82C2998F993099FD22AC4C
:2005930082AD83AEF0FF53B1FB53B2FB53B3BF53B4BF75F85075C40853C4DF8C3C8D3D8E5B
:2005B3003E8F3F90424075F00FE41205F7AC82AD83AEF0FF74FFC39C74FF9DF9E49EE49FC9
:2005D30089C674FFC39CFC8CC5AEC44306088EC42230F8FD859A82C2F822AF82C2F98F9AAC
:0405F30030F9FD22BC
:2005F700FB7A20E4FCFDFEFFE5822582F582E58333F583E5F033F5F0EB33FB4017DAE9803D
:2006170042E5822582F582E58333F583E5F033F5F0EB33FBEC33FCED33FDEE33FEEF33FF6B
:20063700EC953CED953DEE953EEF953F4013EC953CFCED953DFDEE953EFEEF953FFF438295
:0506570001DABEEB22F8
:06003500E478FFF6D8FD9F
:200013007900E94400601B7A00900EFF780175A000E493F2A308B8000205A0D9F4DAF27586
:02003300A0FF2C
:1B065C0020F71130F6138883A88220F509F6A8837583002280FEF280F5F0229D
:20003B007800E84400600A790175A000E4F309D8FC7800E84400600C7900900001E4F0A3C3
:04005B00D8FCD9FAFA
:20067700C03B85813B7E008E83120070D03B2285822385832485F025E4F520F521F522854E
:20069700122690067702076CC03B85813BE53B24FBFF8F26E4F520F521F522E53B24FBF8FD
:1106B700862308862408862590067712076CD03B2265
:2006C800AF82C016C017C0181206D58007C014C0158F8222158115811581051EE4B51E026E
:2006E800051F22AF8274302FFF24C6501174072FFFE51360098F057E004305208D078F8235
:200708000206C8E582FFC4540FF582C0071206EBD007740F5FF5820206EB85823CAB19AC5D
:200728001AAD1BAE1CAA1D753E208A07EF2FF53DEE235401453DFAEB2BFBEC33FCED33FD5F
:20074800EE33FEC3EA953C4008EAC3953CFA430301E53E14FF8F3E70D18B198C1A8D1B8E29
:200768001C8A1D22858214858315852016852117852218E4F51EF51FAD23AE24AF258D828D
:200788008E838FF0120E41FC74012DF523E43EF5248F25ECFF7003020E22BF2502800302C0
:2007A8000E1A7E007D008E278E287A007B008E297C008E2A8E30752BFF852331852432852D
:2007C80025338531828532838533F0120E41F534A38582318583328531238532248533256F
:2007E8007425B534088534821206C8808B74D025345039E53424C6403374FFB52B1AE53023
:20080800F53575F00AA4F535E534F536253524D0F53070AE7D0180AAE52B75F00AA4F5369E
:20082800E534F535253624D0F52B8096742EB5340A74FFB52B8C752B008087749F25345011
:200848000EE534248540085334DF75130180037513007420B534030208F5742BB534030272
:2008680008EF742DB5340280797442B534030208FB7443B534030209067444B53403020BE8
:20088800177446B53403020B2D7448B534030207CA7449B53403020B17744AB5340302075E
:2008A800CA744CB534028050744FB53403020B1E7450B53403020A627453B53402807674D7
:2008C80054B534030207CA7455B53403020B237458B53403020B28745AB534030207CA029C
:2008E8000B317E010207CA7527010207CA7528010207CA7B010207CA7529010207CAEB6075
:200908000AE52614F989268736800DE52624FEF535853526A9358736853682C006C005C05A
:2009280004C003C0021206C8D002D003D004D005D006020B50E52624FDF536853626A936AE
:200948008731098732098733191985311985321A85331B8531828532838533F0C006C00508
:20096800C004C003C002120E29858231858332D002D003D004D005D00685313674FFB52B08
:200988000385362BEE7036C3E5369530502FE530C39536F5358535311535E531601C758225
:2009A80020C006C005C004C003C0021206C8D002D003D004D005D00680DB853530852B350D
:2009C800851982851A83851BF0120E41F53185312D60488535311535C374808531F063F046
:2009E8008095F05036852D82C006C005C004C003C0021206C8D002D003D004D005D00685D3
:200A08001931851A32851B330531E4B53102053285311985321A85331B80A5EE7003020BA1
:200A280050C3E53695304003020B50E530C39536F5368536351536E5357003020B4D758234
:200A480020C006C005C004C003C0021206C8D002D003D004D005D00680D8E52624FDF535E8
:200A6800853526A9358731098732098733191985311985321A85331B851B2E7480252E5069
:200A880005753543801974A0252E5005753550800E74C0252E5005753549800375355885A6
:200AA8003582C006C005C004C003C0021206C875823A1206C87582301206C8758278120624
:200AC800C8D002D003D004D005D0067449B5350280217450B53502801A851A82C006C005E2
:200AE800C004C003C00212070BD002D003D004D005D006851982C006C005C004C003C00269
:200B080012070BD002D003D004D005D00680397A01752A0A8032752A08802D752A0A802851
:200B2800752A1080237C01801F853482C006C005C004C003C0021206C8D002D003D004D007
:200B480005D0068003853630EC6068E52624FCFC8C268C01873709873809873909873A19F8
:200B6800191985371985381A85391B853A1C7519F4751A0E751B80851937851A38851B3927
:200B880074012537F531E43538F53285393385311985321A85331B8537828538838539F04E
:200BA800120E41FC8C3770030207808537821206C880C4E52A7003020780EB603FE52614FB
:200BC800F9892687048C37753800753900753A0085371985381A85391B853A1CEA6003025E
:200BE8000C6D851937753800753900753A0085371985381A85391B853A1C8069E5296025B9
:200C0800E52624FCFC8C268C01873709873809873909873A19191985371985381A85391B7D
:200C2800853A1C8040E52624FEFC8C268C018703098704198B37ECF5383395E0F539F53A92
:200C480085371985381A85391B853A1CEA7016851937851A38F539F53A85371985381A8582
:200C6800391B853A1CEA602AE51C30E723C3E49519F537E4951AF538E4951BF539E4951CF6
:200C8800F53A85371985381A85391B853A1C80027A007C0179457B00751D00852A82C00682
:200CA800C005C004C003C002C001120722D001D002D003D004D005D006EC7010C003E51DFC
:200CC800C4F537E74537F719D0038002A71D0BECB40100E433FCE519451A451B451C70B88B
:200CE800892F8B2CE5307003753001ED702CEE7029853037AB2C0BC3EB9537501A75822076
:200D0800C006C005C004C0021206C8D002D004D005D006153780DD853730EA601675822D70
:200D2800C006C005C0041206C8D004D005D00615308036E52C6032E527601675822BC006F5
:200D4800C005C0041206C8D004D005D00615308018E5286014758220C006C005C0041206C7
:200D6800C8D004D005D0061530EE7034AB308B021BC3E52C9A503CED6008753730753800F2
:200D88008006753720753800853782C006C005C004C0031206C8D003D004D005D00680CE7C
:200DA800C3E52C95305008E530C3952CFD80067D0080028B05A92FAB2C8B021BEA6036ECCC
:200DC800B40100E433FC700A09E7C4540FFA8A1D80078702740F5AF51D851D82C006C00563
:200DE800C004C003C0011206EBD001D003D004D005D00680C4EE70030207808D068E051E0B
:200E0800ED7003020780758220C0061206C8D00680EB8F821206C8020780851E82851F831D
:010E280022A7
:0B0EF4003C4E4F20464C4F41543E0046
:180E2900AA82AB83120E416003A380F8C3E5829AF582E5839BF58322A0
:0D000600758145120E5DE582600302000366
:1C0E410020F71430F6148883A88220F507E6A88375830022E280F7E49322E022C0
:040E5D007582002278
:00000001FF
